{
  "contractName": "AirToken",
  "abi": [
    {
      "inputs": [],
      "stateMutability": "nonpayable",
      "type": "constructor"
    },
    {
      "anonymous": false,
      "inputs": [
        {
          "indexed": false,
          "internalType": "address",
          "name": "_recipient",
          "type": "address"
        },
        {
          "indexed": false,
          "internalType": "uint256",
          "name": "_amount",
          "type": "uint256"
        },
        {
          "indexed": false,
          "internalType": "uint256",
          "name": "_date",
          "type": "uint256"
        }
      ],
      "name": "AirdropProcessed",
      "type": "event"
    },
    {
      "anonymous": false,
      "inputs": [
        {
          "indexed": true,
          "internalType": "address",
          "name": "owner",
          "type": "address"
        },
        {
          "indexed": true,
          "internalType": "address",
          "name": "spender",
          "type": "address"
        },
        {
          "indexed": false,
          "internalType": "uint256",
          "name": "value",
          "type": "uint256"
        }
      ],
      "name": "Approval",
      "type": "event"
    },
    {
      "anonymous": false,
      "inputs": [
        {
          "indexed": true,
          "internalType": "address",
          "name": "from",
          "type": "address"
        },
        {
          "indexed": true,
          "internalType": "address",
          "name": "to",
          "type": "address"
        },
        {
          "indexed": false,
          "internalType": "uint256",
          "name": "value",
          "type": "uint256"
        }
      ],
      "name": "Transfer",
      "type": "event"
    },
    {
      "inputs": [
        {
          "internalType": "uint256",
          "name": "",
          "type": "uint256"
        }
      ],
      "name": "_airdropAddressList",
      "outputs": [
        {
          "internalType": "address",
          "name": "",
          "type": "address"
        }
      ],
      "stateMutability": "view",
      "type": "function"
    },
    {
      "inputs": [
        {
          "internalType": "uint256",
          "name": "",
          "type": "uint256"
        }
      ],
      "name": "_airdropAmountList",
      "outputs": [
        {
          "internalType": "uint256",
          "name": "",
          "type": "uint256"
        }
      ],
      "stateMutability": "view",
      "type": "function"
    },
    {
      "inputs": [],
      "name": "_currentAirdropAmount",
      "outputs": [
        {
          "internalType": "uint256",
          "name": "",
          "type": "uint256"
        }
      ],
      "stateMutability": "view",
      "type": "function"
    },
    {
      "inputs": [],
      "name": "_maxAirdropAmount",
      "outputs": [
        {
          "internalType": "uint256",
          "name": "",
          "type": "uint256"
        }
      ],
      "stateMutability": "view",
      "type": "function"
    },
    {
      "inputs": [
        {
          "internalType": "address",
          "name": "",
          "type": "address"
        }
      ],
      "name": "_processedAirdrop",
      "outputs": [
        {
          "internalType": "bool",
          "name": "",
          "type": "bool"
        }
      ],
      "stateMutability": "view",
      "type": "function"
    },
    {
      "inputs": [
        {
          "internalType": "address",
          "name": "owner",
          "type": "address"
        },
        {
          "internalType": "address",
          "name": "spender",
          "type": "address"
        }
      ],
      "name": "allowance",
      "outputs": [
        {
          "internalType": "uint256",
          "name": "",
          "type": "uint256"
        }
      ],
      "stateMutability": "view",
      "type": "function"
    },
    {
      "inputs": [
        {
          "internalType": "address",
          "name": "spender",
          "type": "address"
        },
        {
          "internalType": "uint256",
          "name": "amount",
          "type": "uint256"
        }
      ],
      "name": "approve",
      "outputs": [
        {
          "internalType": "bool",
          "name": "",
          "type": "bool"
        }
      ],
      "stateMutability": "nonpayable",
      "type": "function"
    },
    {
      "inputs": [
        {
          "internalType": "address",
          "name": "account",
          "type": "address"
        }
      ],
      "name": "balanceOf",
      "outputs": [
        {
          "internalType": "uint256",
          "name": "",
          "type": "uint256"
        }
      ],
      "stateMutability": "view",
      "type": "function"
    },
    {
      "inputs": [],
      "name": "decimals",
      "outputs": [
        {
          "internalType": "uint8",
          "name": "",
          "type": "uint8"
        }
      ],
      "stateMutability": "view",
      "type": "function"
    },
    {
      "inputs": [
        {
          "internalType": "address",
          "name": "spender",
          "type": "address"
        },
        {
          "internalType": "uint256",
          "name": "subtractedValue",
          "type": "uint256"
        }
      ],
      "name": "decreaseAllowance",
      "outputs": [
        {
          "internalType": "bool",
          "name": "",
          "type": "bool"
        }
      ],
      "stateMutability": "nonpayable",
      "type": "function"
    },
    {
      "inputs": [
        {
          "internalType": "address",
          "name": "spender",
          "type": "address"
        },
        {
          "internalType": "uint256",
          "name": "addedValue",
          "type": "uint256"
        }
      ],
      "name": "increaseAllowance",
      "outputs": [
        {
          "internalType": "bool",
          "name": "",
          "type": "bool"
        }
      ],
      "stateMutability": "nonpayable",
      "type": "function"
    },
    {
      "inputs": [],
      "name": "name",
      "outputs": [
        {
          "internalType": "string",
          "name": "",
          "type": "string"
        }
      ],
      "stateMutability": "view",
      "type": "function"
    },
    {
      "inputs": [],
      "name": "symbol",
      "outputs": [
        {
          "internalType": "string",
          "name": "",
          "type": "string"
        }
      ],
      "stateMutability": "view",
      "type": "function"
    },
    {
      "inputs": [],
      "name": "totalSupply",
      "outputs": [
        {
          "internalType": "uint256",
          "name": "",
          "type": "uint256"
        }
      ],
      "stateMutability": "view",
      "type": "function"
    },
    {
      "inputs": [
        {
          "internalType": "address",
          "name": "recipient",
          "type": "address"
        },
        {
          "internalType": "uint256",
          "name": "amount",
          "type": "uint256"
        }
      ],
      "name": "transfer",
      "outputs": [
        {
          "internalType": "bool",
          "name": "",
          "type": "bool"
        }
      ],
      "stateMutability": "nonpayable",
      "type": "function"
    },
    {
      "inputs": [
        {
          "internalType": "address",
          "name": "sender",
          "type": "address"
        },
        {
          "internalType": "address",
          "name": "recipient",
          "type": "address"
        },
        {
          "internalType": "uint256",
          "name": "amount",
          "type": "uint256"
        }
      ],
      "name": "transferFrom",
      "outputs": [
        {
          "internalType": "bool",
          "name": "",
          "type": "bool"
        }
      ],
      "stateMutability": "nonpayable",
      "type": "function"
    },
    {
      "inputs": [
        {
          "internalType": "address",
          "name": "_newAdmin",
          "type": "address"
        }
      ],
      "name": "changeAdmin",
      "outputs": [],
      "stateMutability": "nonpayable",
      "type": "function"
    },
    {
      "inputs": [
        {
          "internalType": "address",
          "name": "_address",
          "type": "address"
        },
        {
          "internalType": "uint256",
          "name": "_amount",
          "type": "uint256"
        }
      ],
      "name": "addAddressForAirDrop",
      "outputs": [],
      "stateMutability": "nonpayable",
      "type": "function"
    },
    {
      "inputs": [
        {
          "internalType": "address",
          "name": "_address",
          "type": "address"
        }
      ],
      "name": "removeAddressForAirDrop",
      "outputs": [],
      "stateMutability": "nonpayable",
      "type": "function"
    },
    {
      "inputs": [],
      "name": "cleatAirdropList",
      "outputs": [],
      "stateMutability": "nonpayable",
      "type": "function"
    },
    {
      "inputs": [
        {
          "internalType": "address",
          "name": "to",
          "type": "address"
        },
        {
          "internalType": "uint256",
          "name": "amount",
          "type": "uint256"
        }
      ],
      "name": "mint",
      "outputs": [],
      "stateMutability": "nonpayable",
      "type": "function"
    },
    {
      "inputs": [
        {
          "internalType": "uint256",
          "name": "amount",
          "type": "uint256"
        }
      ],
      "name": "burn",
      "outputs": [],
      "stateMutability": "nonpayable",
      "type": "function"
    },
    {
      "inputs": [
        {
          "internalType": "address",
          "name": "_recipient",
          "type": "address"
        }
      ],
      "name": "claimToken",
      "outputs": [],
      "stateMutability": "nonpayable",
      "type": "function"
    },
    {
      "inputs": [],
      "name": "getMaxAirdropAmount",
      "outputs": [
        {
          "internalType": "uint256",
          "name": "",
          "type": "uint256"
        }
      ],
      "stateMutability": "view",
      "type": "function"
    },
    {
      "inputs": [],
      "name": "getCurrentAirdropAmount",
      "outputs": [
        {
          "internalType": "uint256",
          "name": "",
          "type": "uint256"
        }
      ],
      "stateMutability": "view",
      "type": "function"
    },
    {
      "inputs": [],
      "name": "getWhitelistedAddress",
      "outputs": [
        {
          "internalType": "address[]",
          "name": "",
          "type": "address[]"
        }
      ],
      "stateMutability": "view",
      "type": "function"
    },
    {
      "inputs": [],
      "name": "getAllocatedAmount",
      "outputs": [
        {
          "internalType": "uint256[]",
          "name": "",
          "type": "uint256[]"
        }
      ],
      "stateMutability": "view",
      "type": "function"
    },
    {
      "inputs": [
        {
          "internalType": "address",
          "name": "_address",
          "type": "address"
        }
      ],
      "name": "getProcessedAirdrop",
      "outputs": [
        {
          "internalType": "bool",
          "name": "",
          "type": "bool"
        }
      ],
      "stateMutability": "view",
      "type": "function"
    }
  ],
  "bytecode": "0x60806040523480156200001157600080fd5b506040518060400160405280600981526020017f41697220546f6b656e00000000000000000000000000000000000000000000008152506040518060400160405280600381526020017f41544e0000000000000000000000000000000000000000000000000000000000815250816003908051906020019062000096929190620002d4565b508060049080519060200190620000af929190620002d4565b505050620000ce3369152d02c7e14af68000006200014760201b60201c565b33600660006101000a81548173ffffffffffffffffffffffffffffffffffffffff021916908373ffffffffffffffffffffffffffffffffffffffff160217905550600a62000121620002c060201b60201c565b60036200012f9190620003bd565b6200013b91906200044d565b600981905550620005f8565b600073ffffffffffffffffffffffffffffffffffffffff168273ffffffffffffffffffffffffffffffffffffffff161415620001ba576040517f08c379a0000000000000000000000000000000000000000000000000000000008152600401620001b190620004e6565b60405180910390fd5b620001ce60008383620002ca60201b60201c565b8060026000828254620001e2919062000508565b92505081905550806000808473ffffffffffffffffffffffffffffffffffffffff1673ffffffffffffffffffffffffffffffffffffffff168152602001908152602001600020600082825462000239919062000508565b925050819055508173ffffffffffffffffffffffffffffffffffffffff16600073ffffffffffffffffffffffffffffffffffffffff167fddf252ad1be2c89b69c2b068fc378daa952ba7f163c4a11628f55a4df523b3ef83604051620002a0919062000576565b60405180910390a3620002bc60008383620002cf60201b60201c565b5050565b6000600254905090565b505050565b505050565b828054620002e290620005c2565b90600052602060002090601f01602090048101928262000306576000855562000352565b82601f106200032157805160ff191683800117855562000352565b8280016001018555821562000352579182015b828111156200035157825182559160200191906001019062000334565b5b50905062000361919062000365565b5090565b5b808211156200038057600081600090555060010162000366565b5090565b6000819050919050565b7f4e487b7100000000000000000000000000000000000000000000000000000000600052601160045260246000fd5b6000620003ca8262000384565b9150620003d78362000384565b9250817fffffffffffffffffffffffffffffffffffffffffffffffffffffffffffffffff04831182151516156200041357620004126200038e565b5b828202905092915050565b7f4e487b7100000000000000000000000000000000000000000000000000000000600052601260045260246000fd5b60006200045a8262000384565b9150620004678362000384565b9250826200047a57620004796200041e565b5b828204905092915050565b600082825260208201905092915050565b7f45524332303a206d696e7420746f20746865207a65726f206164647265737300600082015250565b6000620004ce601f8362000485565b9150620004db8262000496565b602082019050919050565b600060208201905081810360008301526200050181620004bf565b9050919050565b6000620005158262000384565b9150620005228362000384565b9250827fffffffffffffffffffffffffffffffffffffffffffffffffffffffffffffffff038211156200055a57620005596200038e565b5b828201905092915050565b620005708162000384565b82525050565b60006020820190506200058d600083018462000565565b92915050565b7f4e487b7100000000000000000000000000000000000000000000000000000000600052602260045260246000fd5b60006002820490506001821680620005db57607f821691505b60208210811415620005f257620005f162000593565b5b50919050565b612edf80620006086000396000f3fe608060405234801561001057600080fd5b50600436106101c45760003560e01c806370a08231116100f9578063c70051a311610097578063dd62ed3e11610071578063dd62ed3e1461052d578063f2a21f061461055d578063fb6195af1461057b578063fff8cbd414610599576101c4565b8063c70051a3146104e9578063ca5e957b14610505578063d4f83e3e14610523576101c4565b8063a457c2d7116100d3578063a457c2d71461043b578063a888dda01461046b578063a8cc95a314610489578063a9059cbb146104b9576101c4565b806370a08231146103d15780638f2839701461040157806395d89b411461041d576101c4565b806332f289cf1161016657806340c10f191161014057806340c10f191461034b57806342966c68146103675780635632f66c1461038357806368906024146103b3576101c4565b806332f289cf146102e35780633536e3db146102ff578063395093511461031b576101c4565b80630c75b0a4116101a25780630c75b0a41461024757806318160ddd1461027757806323b872dd14610295578063313ce567146102c5576101c4565b806302270b15146101c957806306fdde03146101f9578063095ea7b314610217575b600080fd5b6101e360048036038101906101de9190611f64565b6105b7565b6040516101f09190611fac565b60405180910390f35b6102016105d7565b60405161020e9190612060565b60405180910390f35b610231600480360381019061022c91906120b8565b610669565b60405161023e9190611fac565b60405180910390f35b610261600480360381019061025c9190611f64565b610687565b60405161026e9190611fac565b60405180910390f35b61027f6106dd565b60405161028c9190612107565b60405180910390f35b6102af60048036038101906102aa9190612122565b6106e7565b6040516102bc9190611fac565b60405180910390f35b6102cd6107df565b6040516102da9190612191565b60405180910390f35b6102fd60048036038101906102f89190611f64565b6107e8565b005b610319600480360381019061031491906120b8565b610b86565b005b610335600480360381019061033091906120b8565b610cea565b6040516103429190611fac565b60405180910390f35b610365600480360381019061036091906120b8565b610d96565b005b610381600480360381019061037c91906121ac565b610e34565b005b61039d600480360381019061039891906121ac565b610e41565b6040516103aa9190612107565b60405180910390f35b6103bb610e65565b6040516103c89190612107565b60405180910390f35b6103eb60048036038101906103e69190611f64565b610e6b565b6040516103f89190612107565b60405180910390f35b61041b60048036038101906104169190611f64565b610eb3565b005b610425610ff7565b6040516104329190612060565b60405180910390f35b610455600480360381019061045091906120b8565b611089565b6040516104629190611fac565b60405180910390f35b610473611174565b6040516104809190612297565b60405180910390f35b6104a3600480360381019061049e91906121ac565b611202565b6040516104b091906122c8565b60405180910390f35b6104d360048036038101906104ce91906120b8565b611241565b6040516104e09190611fac565b60405180910390f35b61050360048036038101906104fe9190611f64565b61125f565b005b61050d611566565b60405161051a9190612107565b60405180910390f35b61052b61156c565b005b610547600480360381019061054291906122e3565b61161a565b6040516105549190612107565b60405180910390f35b6105656116a1565b6040516105729190612107565b60405180910390f35b6105836116ab565b60405161059091906123e1565b60405180910390f35b6105a1611703565b6040516105ae9190612107565b60405180910390f35b60056020528060005260406000206000915054906101000a900460ff1681565b6060600380546105e690612432565b80601f016020809104026020016040519081016040528092919081815260200182805461061290612432565b801561065f5780601f106106345761010080835404028352916020019161065f565b820191906000526020600020905b81548152906001019060200180831161064257829003601f168201915b5050505050905090565b600061067d61067661170d565b8484611715565b6001905092915050565b6000600560008373ffffffffffffffffffffffffffffffffffffffff1673ffffffffffffffffffffffffffffffffffffffff16815260200190815260200160002060009054906101000a900460ff169050919050565b6000600254905090565b60006106f48484846118e0565b6000600160008673ffffffffffffffffffffffffffffffffffffffff1673ffffffffffffffffffffffffffffffffffffffff168152602001908152602001600020600061073f61170d565b73ffffffffffffffffffffffffffffffffffffffff1673ffffffffffffffffffffffffffffffffffffffff168152602001908152602001600020549050828110156107bf576040517f08c379a00000000000000000000000000000000000000000000000000000000081526004016107b6906124d6565b60405180910390fd5b6107d3856107cb61170d565b858403611715565b60019150509392505050565b60006012905090565b6000806001905060001515600560008573ffffffffffffffffffffffffffffffffffffffff1673ffffffffffffffffffffffffffffffffffffffff16815260200190815260200160002060009054906101000a900460ff16151514610882576040517f08c379a000000000000000000000000000000000000000000000000000000000815260040161087990612568565b60405180910390fd5b60005b600780549050811015610923578373ffffffffffffffffffffffffffffffffffffffff16600782815481106108bd576108bc612588565b5b9060005260206000200160009054906101000a900473ffffffffffffffffffffffffffffffffffffffff1673ffffffffffffffffffffffffffffffffffffffff1614156109105780925060009150610923565b808061091b906125e6565b915050610885565b5060008160ff16148061099f57508273ffffffffffffffffffffffffffffffffffffffff166007838154811061095c5761095b612588565b5b9060005260206000200160009054906101000a900473ffffffffffffffffffffffffffffffffffffffff1673ffffffffffffffffffffffffffffffffffffffff16145b6109de576040517f08c379a00000000000000000000000000000000000000000000000000000000081526004016109d5906126a1565b60405180910390fd5b600954600883815481106109f5576109f4612588565b5b9060005260206000200154600a54610a0d91906126c1565b1115610a4e576040517f08c379a0000000000000000000000000000000000000000000000000000000008152600401610a4590612789565b60405180910390fd5b6001600560008573ffffffffffffffffffffffffffffffffffffffff1673ffffffffffffffffffffffffffffffffffffffff16815260200190815260200160002060006101000a81548160ff02191690831515021790555060088281548110610aba57610ab9612588565b5b9060005260206000200154600a6000828254610ad691906126c1565b92505081905550610b28600660009054906101000a900473ffffffffffffffffffffffffffffffffffffffff168460088581548110610b1857610b17612588565b5b90600052602060002001546118e0565b7fc0312d3bf25e86c787fa77f4d038213e428dc722e16d38ca9719e987d20f7c7c8360088481548110610b5e57610b5d612588565b5b906000526020600020015442604051610b79939291906127a9565b60405180910390a1505050565b600660009054906101000a900473ffffffffffffffffffffffffffffffffffffffff1673ffffffffffffffffffffffffffffffffffffffff163373ffffffffffffffffffffffffffffffffffffffff1614610c16576040517f08c379a0000000000000000000000000000000000000000000000000000000008152600401610c0d90612852565b60405180910390fd5b6000811415610c5a576040517f08c379a0000000000000000000000000000000000000000000000000000000008152600401610c51906128be565b60405180910390fd5b6007829080600181540180825580915050600190039060005260206000200160009091909190916101000a81548173ffffffffffffffffffffffffffffffffffffffff021916908373ffffffffffffffffffffffffffffffffffffffff16021790555060088190806001815401808255809150506001900390600052602060002001600090919091909150555050565b6000610d8c610cf761170d565b848460016000610d0561170d565b73ffffffffffffffffffffffffffffffffffffffff1673ffffffffffffffffffffffffffffffffffffffff16815260200190815260200160002060008873ffffffffffffffffffffffffffffffffffffffff1673ffffffffffffffffffffffffffffffffffffffff16815260200190815260200160002054610d8791906126c1565b611715565b6001905092915050565b600660009054906101000a900473ffffffffffffffffffffffffffffffffffffffff1673ffffffffffffffffffffffffffffffffffffffff163373ffffffffffffffffffffffffffffffffffffffff1614610e26576040517f08c379a0000000000000000000000000000000000000000000000000000000008152600401610e1d90612852565b60405180910390fd5b610e308282611b61565b5050565b610e3e3382611cc1565b50565b60088181548110610e5157600080fd5b906000526020600020016000915090505481565b60095481565b60008060008373ffffffffffffffffffffffffffffffffffffffff1673ffffffffffffffffffffffffffffffffffffffff168152602001908152602001600020549050919050565b600660009054906101000a900473ffffffffffffffffffffffffffffffffffffffff1673ffffffffffffffffffffffffffffffffffffffff163373ffffffffffffffffffffffffffffffffffffffff1614610f43576040517f08c379a0000000000000000000000000000000000000000000000000000000008152600401610f3a90612852565b60405180910390fd5b600073ffffffffffffffffffffffffffffffffffffffff168173ffffffffffffffffffffffffffffffffffffffff161415610fb3576040517f08c379a0000000000000000000000000000000000000000000000000000000008152600401610faa9061292a565b60405180910390fd5b80600660006101000a81548173ffffffffffffffffffffffffffffffffffffffff021916908373ffffffffffffffffffffffffffffffffffffffff16021790555050565b60606004805461100690612432565b80601f016020809104026020016040519081016040528092919081815260200182805461103290612432565b801561107f5780601f106110545761010080835404028352916020019161107f565b820191906000526020600020905b81548152906001019060200180831161106257829003601f168201915b5050505050905090565b6000806001600061109861170d565b73ffffffffffffffffffffffffffffffffffffffff1673ffffffffffffffffffffffffffffffffffffffff16815260200190815260200160002060008573ffffffffffffffffffffffffffffffffffffffff1673ffffffffffffffffffffffffffffffffffffffff16815260200190815260200160002054905082811015611155576040517f08c379a000000000000000000000000000000000000000000000000000000000815260040161114c906129bc565b60405180910390fd5b61116961116061170d565b85858403611715565b600191505092915050565b606060078054806020026020016040519081016040528092919081815260200182805480156111f857602002820191906000526020600020905b8160009054906101000a900473ffffffffffffffffffffffffffffffffffffffff1673ffffffffffffffffffffffffffffffffffffffff16815260200190600101908083116111ae575b5050505050905090565b6007818154811061121257600080fd5b906000526020600020016000915054906101000a900473ffffffffffffffffffffffffffffffffffffffff1681565b600061125561124e61170d565b84846118e0565b6001905092915050565b600660009054906101000a900473ffffffffffffffffffffffffffffffffffffffff1673ffffffffffffffffffffffffffffffffffffffff163373ffffffffffffffffffffffffffffffffffffffff16146112ef576040517f08c379a00000000000000000000000000000000000000000000000000000000081526004016112e690612852565b60405180910390fd5b600073ffffffffffffffffffffffffffffffffffffffff168173ffffffffffffffffffffffffffffffffffffffff16141561135f576040517f08c379a00000000000000000000000000000000000000000000000000000000081526004016113569061292a565b60405180910390fd5b60005b600780549050811015611562576007818154811061138357611382612588565b5b9060005260206000200160009054906101000a900473ffffffffffffffffffffffffffffffffffffffff1673ffffffffffffffffffffffffffffffffffffffff168273ffffffffffffffffffffffffffffffffffffffff16141561154f57600760016007805490506113f591906129dc565b8154811061140657611405612588565b5b9060005260206000200160009054906101000a900473ffffffffffffffffffffffffffffffffffffffff166007828154811061144557611444612588565b5b9060005260206000200160006101000a81548173ffffffffffffffffffffffffffffffffffffffff021916908373ffffffffffffffffffffffffffffffffffffffff160217905550600860016008805490506114a191906129dc565b815481106114b2576114b1612588565b5b9060005260206000200154600882815481106114d1576114d0612588565b5b906000526020600020018190555060078054806114f1576114f0612a10565b5b6001900381819060005260206000200160006101000a81549073ffffffffffffffffffffffffffffffffffffffff02191690559055600880548061153857611537612a10565b5b600190038181906000526020600020016000905590555b808061155a906125e6565b915050611362565b5050565b600a5481565b600660009054906101000a900473ffffffffffffffffffffffffffffffffffffffff1673ffffffffffffffffffffffffffffffffffffffff163373ffffffffffffffffffffffffffffffffffffffff16146115fc576040517f08c379a00000000000000000000000000000000000000000000000000000000081526004016115f390612852565b60405180910390fd5b6007600061160a9190611ea2565b600860006116189190611ec3565b565b6000600160008473ffffffffffffffffffffffffffffffffffffffff1673ffffffffffffffffffffffffffffffffffffffff16815260200190815260200160002060008373ffffffffffffffffffffffffffffffffffffffff1673ffffffffffffffffffffffffffffffffffffffff16815260200190815260200160002054905092915050565b6000600a54905090565b606060088054806020026020016040519081016040528092919081815260200182805480156116f957602002820191906000526020600020905b8154815260200190600101908083116116e5575b5050505050905090565b6000600954905090565b600033905090565b600073ffffffffffffffffffffffffffffffffffffffff168373ffffffffffffffffffffffffffffffffffffffff161415611785576040517f08c379a000000000000000000000000000000000000000000000000000000000815260040161177c90612ab1565b60405180910390fd5b600073ffffffffffffffffffffffffffffffffffffffff168273ffffffffffffffffffffffffffffffffffffffff1614156117f5576040517f08c379a00000000000000000000000000000000000000000000000000000000081526004016117ec90612b43565b60405180910390fd5b80600160008573ffffffffffffffffffffffffffffffffffffffff1673ffffffffffffffffffffffffffffffffffffffff16815260200190815260200160002060008473ffffffffffffffffffffffffffffffffffffffff1673ffffffffffffffffffffffffffffffffffffffff168152602001908152602001600020819055508173ffffffffffffffffffffffffffffffffffffffff168373ffffffffffffffffffffffffffffffffffffffff167f8c5be1e5ebec7d5bd14f71427d1e84f3dd0314c0f7b2291e5b200ac8c7c3b925836040516118d39190612107565b60405180910390a3505050565b600073ffffffffffffffffffffffffffffffffffffffff168373ffffffffffffffffffffffffffffffffffffffff161415611950576040517f08c379a000000000000000000000000000000000000000000000000000000000815260040161194790612bd5565b60405180910390fd5b600073ffffffffffffffffffffffffffffffffffffffff168273ffffffffffffffffffffffffffffffffffffffff1614156119c0576040517f08c379a00000000000000000000000000000000000000000000000000000000081526004016119b790612c67565b60405180910390fd5b6119cb838383611e98565b60008060008573ffffffffffffffffffffffffffffffffffffffff1673ffffffffffffffffffffffffffffffffffffffff16815260200190815260200160002054905081811015611a51576040517f08c379a0000000000000000000000000000000000000000000000000000000008152600401611a4890612cf9565b60405180910390fd5b8181036000808673ffffffffffffffffffffffffffffffffffffffff1673ffffffffffffffffffffffffffffffffffffffff16815260200190815260200160002081905550816000808573ffffffffffffffffffffffffffffffffffffffff1673ffffffffffffffffffffffffffffffffffffffff1681526020019081526020016000206000828254611ae491906126c1565b925050819055508273ffffffffffffffffffffffffffffffffffffffff168473ffffffffffffffffffffffffffffffffffffffff167fddf252ad1be2c89b69c2b068fc378daa952ba7f163c4a11628f55a4df523b3ef84604051611b489190612107565b60405180910390a3611b5b848484611e9d565b50505050565b600073ffffffffffffffffffffffffffffffffffffffff168273ffffffffffffffffffffffffffffffffffffffff161415611bd1576040517f08c379a0000000000000000000000000000000000000000000000000000000008152600401611bc890612d65565b60405180910390fd5b611bdd60008383611e98565b8060026000828254611bef91906126c1565b92505081905550806000808473ffffffffffffffffffffffffffffffffffffffff1673ffffffffffffffffffffffffffffffffffffffff1681526020019081526020016000206000828254611c4491906126c1565b925050819055508173ffffffffffffffffffffffffffffffffffffffff16600073ffffffffffffffffffffffffffffffffffffffff167fddf252ad1be2c89b69c2b068fc378daa952ba7f163c4a11628f55a4df523b3ef83604051611ca99190612107565b60405180910390a3611cbd60008383611e9d565b5050565b600073ffffffffffffffffffffffffffffffffffffffff168273ffffffffffffffffffffffffffffffffffffffff161415611d31576040517f08c379a0000000000000000000000000000000000000000000000000000000008152600401611d2890612df7565b60405180910390fd5b611d3d82600083611e98565b60008060008473ffffffffffffffffffffffffffffffffffffffff1673ffffffffffffffffffffffffffffffffffffffff16815260200190815260200160002054905081811015611dc3576040517f08c379a0000000000000000000000000000000000000000000000000000000008152600401611dba90612e89565b60405180910390fd5b8181036000808573ffffffffffffffffffffffffffffffffffffffff1673ffffffffffffffffffffffffffffffffffffffff168152602001908152602001600020819055508160026000828254611e1a91906129dc565b92505081905550600073ffffffffffffffffffffffffffffffffffffffff168373ffffffffffffffffffffffffffffffffffffffff167fddf252ad1be2c89b69c2b068fc378daa952ba7f163c4a11628f55a4df523b3ef84604051611e7f9190612107565b60405180910390a3611e9383600084611e9d565b505050565b505050565b505050565b5080546000825590600052602060002090810190611ec09190611ee4565b50565b5080546000825590600052602060002090810190611ee19190611ee4565b50565b5b80821115611efd576000816000905550600101611ee5565b5090565b600080fd5b600073ffffffffffffffffffffffffffffffffffffffff82169050919050565b6000611f3182611f06565b9050919050565b611f4181611f26565b8114611f4c57600080fd5b50565b600081359050611f5e81611f38565b92915050565b600060208284031215611f7a57611f79611f01565b5b6000611f8884828501611f4f565b91505092915050565b60008115159050919050565b611fa681611f91565b82525050565b6000602082019050611fc16000830184611f9d565b92915050565b600081519050919050565b600082825260208201905092915050565b60005b83811015612001578082015181840152602081019050611fe6565b83811115612010576000848401525b50505050565b6000601f19601f8301169050919050565b600061203282611fc7565b61203c8185611fd2565b935061204c818560208601611fe3565b61205581612016565b840191505092915050565b6000602082019050818103600083015261207a8184612027565b905092915050565b6000819050919050565b61209581612082565b81146120a057600080fd5b50565b6000813590506120b28161208c565b92915050565b600080604083850312156120cf576120ce611f01565b5b60006120dd85828601611f4f565b92505060206120ee858286016120a3565b9150509250929050565b61210181612082565b82525050565b600060208201905061211c60008301846120f8565b92915050565b60008060006060848603121561213b5761213a611f01565b5b600061214986828701611f4f565b935050602061215a86828701611f4f565b925050604061216b868287016120a3565b9150509250925092565b600060ff82169050919050565b61218b81612175565b82525050565b60006020820190506121a66000830184612182565b92915050565b6000602082840312156121c2576121c1611f01565b5b60006121d0848285016120a3565b91505092915050565b600081519050919050565b600082825260208201905092915050565b6000819050602082019050919050565b61220e81611f26565b82525050565b60006122208383612205565b60208301905092915050565b6000602082019050919050565b6000612244826121d9565b61224e81856121e4565b9350612259836121f5565b8060005b8381101561228a5781516122718882612214565b975061227c8361222c565b92505060018101905061225d565b5085935050505092915050565b600060208201905081810360008301526122b18184612239565b905092915050565b6122c281611f26565b82525050565b60006020820190506122dd60008301846122b9565b92915050565b600080604083850312156122fa576122f9611f01565b5b600061230885828601611f4f565b925050602061231985828601611f4f565b9150509250929050565b600081519050919050565b600082825260208201905092915050565b6000819050602082019050919050565b61235881612082565b82525050565b600061236a838361234f565b60208301905092915050565b6000602082019050919050565b600061238e82612323565b612398818561232e565b93506123a38361233f565b8060005b838110156123d45781516123bb888261235e565b97506123c683612376565b9250506001810190506123a7565b5085935050505092915050565b600060208201905081810360008301526123fb8184612383565b905092915050565b7f4e487b7100000000000000000000000000000000000000000000000000000000600052602260045260246000fd5b6000600282049050600182168061244a57607f821691505b6020821081141561245e5761245d612403565b5b50919050565b7f45524332303a207472616e7366657220616d6f756e742065786365656473206160008201527f6c6c6f77616e6365000000000000000000000000000000000000000000000000602082015250565b60006124c0602883611fd2565b91506124cb82612464565b604082019050919050565b600060208201905081810360008301526124ef816124b3565b9050919050565b7f41697264726f7020616c72656164792050726f63657373656420666f7220746860008201527f6973206164647265737300000000000000000000000000000000000000000000602082015250565b6000612552602a83611fd2565b915061255d826124f6565b604082019050919050565b6000602082019050818103600083015261258181612545565b9050919050565b7f4e487b7100000000000000000000000000000000000000000000000000000000600052603260045260246000fd5b7f4e487b7100000000000000000000000000000000000000000000000000000000600052601160045260246000fd5b60006125f182612082565b91507fffffffffffffffffffffffffffffffffffffffffffffffffffffffffffffffff821415612624576126236125b7565b5b600182019050919050565b7f546869732061646472657373206973206e6f7420656c696769626c6520666f7260008201527f207468652061697264726f700000000000000000000000000000000000000000602082015250565b600061268b602c83611fd2565b91506126968261262f565b604082019050919050565b600060208201905081810360008301526126ba8161267e565b9050919050565b60006126cc82612082565b91506126d783612082565b9250827fffffffffffffffffffffffffffffffffffffffffffffffffffffffffffffffff0382111561270c5761270b6125b7565b5b828201905092915050565b7f41697264726f707065642031303025206f662074686520616c6c6f636174656460008201527f20616d6f756e7400000000000000000000000000000000000000000000000000602082015250565b6000612773602783611fd2565b915061277e82612717565b604082019050919050565b600060208201905081810360008301526127a281612766565b9050919050565b60006060820190506127be60008301866122b9565b6127cb60208301856120f8565b6127d860408301846120f8565b949350505050565b7f4f6e6c792061646d696e2063616e20706572666f726d2074686973206163746960008201527f6f6e000000000000000000000000000000000000000000000000000000000000602082015250565b600061283c602283611fd2565b9150612847826127e0565b604082019050919050565b6000602082019050818103600083015261286b8161282f565b9050919050565b7f416d6f756e742063616e6e6f74206265205a65726f0000000000000000000000600082015250565b60006128a8601583611fd2565b91506128b382612872565b602082019050919050565b600060208201905081810360008301526128d78161289b565b9050919050565b7f416464726573732063616e6e6f74206265205a65726f20416464726573730000600082015250565b6000612914601e83611fd2565b915061291f826128de565b602082019050919050565b6000602082019050818103600083015261294381612907565b9050919050565b7f45524332303a2064656372656173656420616c6c6f77616e63652062656c6f7760008201527f207a65726f000000000000000000000000000000000000000000000000000000602082015250565b60006129a6602583611fd2565b91506129b18261294a565b604082019050919050565b600060208201905081810360008301526129d581612999565b9050919050565b60006129e782612082565b91506129f283612082565b925082821015612a0557612a046125b7565b5b828203905092915050565b7f4e487b7100000000000000000000000000000000000000000000000000000000600052603160045260246000fd5b7f45524332303a20617070726f76652066726f6d20746865207a65726f2061646460008201527f7265737300000000000000000000000000000000000000000000000000000000602082015250565b6000612a9b602483611fd2565b9150612aa682612a3f565b604082019050919050565b60006020820190508181036000830152612aca81612a8e565b9050919050565b7f45524332303a20617070726f766520746f20746865207a65726f20616464726560008201527f7373000000000000000000000000000000000000000000000000000000000000602082015250565b6000612b2d602283611fd2565b9150612b3882612ad1565b604082019050919050565b60006020820190508181036000830152612b5c81612b20565b9050919050565b7f45524332303a207472616e736665722066726f6d20746865207a65726f20616460008201527f6472657373000000000000000000000000000000000000000000000000000000602082015250565b6000612bbf602583611fd2565b9150612bca82612b63565b604082019050919050565b60006020820190508181036000830152612bee81612bb2565b9050919050565b7f45524332303a207472616e7366657220746f20746865207a65726f206164647260008201527f6573730000000000000000000000000000000000000000000000000000000000602082015250565b6000612c51602383611fd2565b9150612c5c82612bf5565b604082019050919050565b60006020820190508181036000830152612c8081612c44565b9050919050565b7f45524332303a207472616e7366657220616d6f756e742065786365656473206260008201527f616c616e63650000000000000000000000000000000000000000000000000000602082015250565b6000612ce3602683611fd2565b9150612cee82612c87565b604082019050919050565b60006020820190508181036000830152612d1281612cd6565b9050919050565b7f45524332303a206d696e7420746f20746865207a65726f206164647265737300600082015250565b6000612d4f601f83611fd2565b9150612d5a82612d19565b602082019050919050565b60006020820190508181036000830152612d7e81612d42565b9050919050565b7f45524332303a206275726e2066726f6d20746865207a65726f2061646472657360008201527f7300000000000000000000000000000000000000000000000000000000000000602082015250565b6000612de1602183611fd2565b9150612dec82612d85565b604082019050919050565b60006020820190508181036000830152612e1081612dd4565b9050919050565b7f45524332303a206275726e20616d6f756e7420657863656564732062616c616e60008201527f6365000000000000000000000000000000000000000000000000000000000000602082015250565b6000612e73602283611fd2565b9150612e7e82612e17565b604082019050919050565b60006020820190508181036000830152612ea281612e66565b905091905056fea264697066735822122046996ecc47a07b1c7b6718f443fde0e12e88503db804566b7526b44506f080d864736f6c634300080a0033",
  "immutableReferences": {},
  "source": "// SPDX-License-Identifier: MIT\r\n\r\npragma solidity >=0.8.10;\r\n\r\n// import \"https://github.com/OpenZeppelin/openzeppelin-contracts/blob/master/contracts/token/ERC20/ERC20.sol\";\r\n\r\nimport \"../node_modules/@openzeppelin/contracts/token/ERC20/ERC20.sol\";\r\n\r\ncontract AirToken is ERC20 {\r\n  mapping(address => bool) public _processedAirdrop;\r\n\r\n  address private _admin;\r\n  address[] public _airdropAddressList;\r\n  uint256[] public _airdropAmountList;\r\n  uint256 public _maxAirdropAmount;\r\n  uint256 public _currentAirdropAmount;\r\n\r\n  event AirdropProcessed(address _recipient, uint256 _amount, uint256 _date);\r\n\r\n  constructor() ERC20(\"Air Token\", \"ATN\") {\r\n    _mint(msg.sender, 100000 * 10**18);\r\n    _admin = msg.sender;\r\n    _maxAirdropAmount = (3 * totalSupply()) / 10; // Max amount for Air drop is allocatied to 30% of total supply.\r\n  }\r\n\r\n  modifier onlyAdmin() {\r\n    require(msg.sender == _admin, \"Only admin can perform this action\");\r\n    _;\r\n  }\r\n\r\n  // Funtion to Change the admin of the smart contract\r\n  function changeAdmin(address _newAdmin) external onlyAdmin {\r\n    require(_newAdmin != address(0), \"Address cannot be Zero Address\");\r\n\r\n    _admin = _newAdmin;\r\n  }\r\n\r\n  // This function will let the admin to add specific address for the Airdrop.\r\n  function addAddressForAirDrop(address _address, uint256 _amount)\r\n    public\r\n    onlyAdmin\r\n  {\r\n    require(_amount != 0, \"Amount cannot be Zero\");\r\n\r\n    _airdropAddressList.push(_address);\r\n\r\n    _airdropAmountList.push(_amount);\r\n  }\r\n\r\n  // This function will let the admin to remove specific address for the Airdrop.\r\n  function removeAddressForAirDrop(address _address) external onlyAdmin {\r\n    require(_address != address(0), \"Address cannot be Zero Address\");\r\n\r\n    for (uint256 i = 0; i < _airdropAddressList.length; i++) {\r\n      if (_address == _airdropAddressList[i]) {\r\n        _airdropAddressList[i] = _airdropAddressList[\r\n          _airdropAddressList.length - 1\r\n        ];\r\n        _airdropAmountList[i] = _airdropAmountList[\r\n          _airdropAmountList.length - 1\r\n        ];\r\n        _airdropAddressList.pop();\r\n        _airdropAmountList.pop();\r\n      }\r\n    }\r\n  }\r\n\r\n  function cleatAirdropList() external onlyAdmin {\r\n    delete _airdropAddressList;\r\n    delete _airdropAmountList;\r\n  }\r\n\r\n  // This function will help the admin to add more Token to the initial supply.\r\n  function mint(address to, uint256 amount) external onlyAdmin {\r\n    _mint(to, amount);\r\n  }\r\n\r\n  // Anyone can burn thier own token if required.\r\n  function burn(uint256 amount) external {\r\n    _burn(msg.sender, amount);\r\n  }\r\n\r\n  function claimToken(address _recipient) external {\r\n    uint256 index;\r\n    uint8 flag = 1;\r\n    require(\r\n      _processedAirdrop[_recipient] == false,\r\n      \"Airdrop already Processed for this address\"\r\n    );\r\n\r\n    for (uint256 i = 0; i < _airdropAddressList.length; i++) {\r\n      if (_airdropAddressList[i] == _recipient) {\r\n        index = i;\r\n        flag = 0;\r\n        break;\r\n      }\r\n    }\r\n\r\n    require(\r\n      flag == 0 || _airdropAddressList[index] == _recipient,\r\n      \"This address is not eligible for the airdrop\"\r\n    );\r\n\r\n    require(\r\n      _currentAirdropAmount + _airdropAmountList[index] <= _maxAirdropAmount,\r\n      \"Airdropped 100% of the allocated amount\"\r\n    );\r\n\r\n    _processedAirdrop[_recipient] = true;\r\n    _currentAirdropAmount += _airdropAmountList[index];\r\n    _transfer(_admin, _recipient, _airdropAmountList[index]);\r\n    emit AirdropProcessed(\r\n      _recipient,\r\n      _airdropAmountList[index],\r\n      block.timestamp\r\n    );\r\n  }\r\n\r\n  function getMaxAirdropAmount() external view returns (uint256) {\r\n    return _maxAirdropAmount;\r\n  }\r\n\r\n  function getCurrentAirdropAmount() external view returns (uint256) {\r\n    return _currentAirdropAmount;\r\n  }\r\n\r\n  function getWhitelistedAddress() external view returns (address[] memory) {\r\n    return _airdropAddressList;\r\n  }\r\n\r\n  function getAllocatedAmount() external view returns (uint256[] memory) {\r\n    return _airdropAmountList;\r\n  }\r\n\r\n  function getProcessedAirdrop(address _address) external view returns (bool) {\r\n    return _processedAirdrop[_address];\r\n  }\r\n}\r\n",
  "sourcePath": "P:\\Projects\\erc20-airdrop-contract\\token\\contracts\\Air_Token.sol",
  "compiler": {
    "name": "solc",
    "version": "0.8.10+commit.fc410830.Emscripten.clang"
  },
  "schemaVersion": "3.4.4",
  "updatedAt": "2022-01-16T17:21:59.652Z",
  "devdoc": {
    "kind": "dev",
    "methods": {
      "allowance(address,address)": {
        "details": "See {IERC20-allowance}."
      },
      "approve(address,uint256)": {
        "details": "See {IERC20-approve}. Requirements: - `spender` cannot be the zero address."
      },
      "balanceOf(address)": {
        "details": "See {IERC20-balanceOf}."
      },
      "decimals()": {
        "details": "Returns the number of decimals used to get its user representation. For example, if `decimals` equals `2`, a balance of `505` tokens should be displayed to a user as `5.05` (`505 / 10 ** 2`). Tokens usually opt for a value of 18, imitating the relationship between Ether and Wei. This is the value {ERC20} uses, unless this function is overridden; NOTE: This information is only used for _display_ purposes: it in no way affects any of the arithmetic of the contract, including {IERC20-balanceOf} and {IERC20-transfer}."
      },
      "decreaseAllowance(address,uint256)": {
        "details": "Atomically decreases the allowance granted to `spender` by the caller. This is an alternative to {approve} that can be used as a mitigation for problems described in {IERC20-approve}. Emits an {Approval} event indicating the updated allowance. Requirements: - `spender` cannot be the zero address. - `spender` must have allowance for the caller of at least `subtractedValue`."
      },
      "increaseAllowance(address,uint256)": {
        "details": "Atomically increases the allowance granted to `spender` by the caller. This is an alternative to {approve} that can be used as a mitigation for problems described in {IERC20-approve}. Emits an {Approval} event indicating the updated allowance. Requirements: - `spender` cannot be the zero address."
      },
      "name()": {
        "details": "Returns the name of the token."
      },
      "symbol()": {
        "details": "Returns the symbol of the token, usually a shorter version of the name."
      },
      "totalSupply()": {
        "details": "See {IERC20-totalSupply}."
      },
      "transfer(address,uint256)": {
        "details": "See {IERC20-transfer}. Requirements: - `recipient` cannot be the zero address. - the caller must have a balance of at least `amount`."
      },
      "transferFrom(address,address,uint256)": {
        "details": "See {IERC20-transferFrom}. Emits an {Approval} event indicating the updated allowance. This is not required by the EIP. See the note at the beginning of {ERC20}. Requirements: - `sender` and `recipient` cannot be the zero address. - `sender` must have a balance of at least `amount`. - the caller must have allowance for ``sender``'s tokens of at least `amount`."
      }
    },
    "version": 1
  },
  "userdoc": {
    "kind": "user",
    "methods": {},
    "version": 1
  }
}