{
  "contractName": "AirToken",
  "abi": [
    {
      "inputs": [],
      "stateMutability": "nonpayable",
      "type": "constructor"
    },
    {
      "anonymous": false,
      "inputs": [
        {
          "indexed": false,
          "internalType": "address",
          "name": "_recipient",
          "type": "address"
        },
        {
          "indexed": false,
          "internalType": "uint256",
          "name": "_amount",
          "type": "uint256"
        },
        {
          "indexed": false,
          "internalType": "uint256",
          "name": "_date",
          "type": "uint256"
        }
      ],
      "name": "AirdropProcessed",
      "type": "event"
    },
    {
      "anonymous": false,
      "inputs": [
        {
          "indexed": true,
          "internalType": "address",
          "name": "owner",
          "type": "address"
        },
        {
          "indexed": true,
          "internalType": "address",
          "name": "spender",
          "type": "address"
        },
        {
          "indexed": false,
          "internalType": "uint256",
          "name": "value",
          "type": "uint256"
        }
      ],
      "name": "Approval",
      "type": "event"
    },
    {
      "anonymous": false,
      "inputs": [
        {
          "indexed": true,
          "internalType": "address",
          "name": "from",
          "type": "address"
        },
        {
          "indexed": true,
          "internalType": "address",
          "name": "to",
          "type": "address"
        },
        {
          "indexed": false,
          "internalType": "uint256",
          "name": "value",
          "type": "uint256"
        }
      ],
      "name": "Transfer",
      "type": "event"
    },
    {
      "inputs": [
        {
          "internalType": "uint256",
          "name": "",
          "type": "uint256"
        }
      ],
      "name": "_airdropAddressList",
      "outputs": [
        {
          "internalType": "address",
          "name": "",
          "type": "address"
        }
      ],
      "stateMutability": "view",
      "type": "function"
    },
    {
      "inputs": [
        {
          "internalType": "uint256",
          "name": "",
          "type": "uint256"
        }
      ],
      "name": "_airdropAmountList",
      "outputs": [
        {
          "internalType": "uint256",
          "name": "",
          "type": "uint256"
        }
      ],
      "stateMutability": "view",
      "type": "function"
    },
    {
      "inputs": [],
      "name": "_currentAirdropAmount",
      "outputs": [
        {
          "internalType": "uint256",
          "name": "",
          "type": "uint256"
        }
      ],
      "stateMutability": "view",
      "type": "function"
    },
    {
      "inputs": [],
      "name": "_maxAirdropAmount",
      "outputs": [
        {
          "internalType": "uint256",
          "name": "",
          "type": "uint256"
        }
      ],
      "stateMutability": "view",
      "type": "function"
    },
    {
      "inputs": [
        {
          "internalType": "address",
          "name": "",
          "type": "address"
        }
      ],
      "name": "_processesAirdrop",
      "outputs": [
        {
          "internalType": "bool",
          "name": "",
          "type": "bool"
        }
      ],
      "stateMutability": "view",
      "type": "function"
    },
    {
      "inputs": [
        {
          "internalType": "address",
          "name": "owner",
          "type": "address"
        },
        {
          "internalType": "address",
          "name": "spender",
          "type": "address"
        }
      ],
      "name": "allowance",
      "outputs": [
        {
          "internalType": "uint256",
          "name": "",
          "type": "uint256"
        }
      ],
      "stateMutability": "view",
      "type": "function"
    },
    {
      "inputs": [
        {
          "internalType": "address",
          "name": "spender",
          "type": "address"
        },
        {
          "internalType": "uint256",
          "name": "amount",
          "type": "uint256"
        }
      ],
      "name": "approve",
      "outputs": [
        {
          "internalType": "bool",
          "name": "",
          "type": "bool"
        }
      ],
      "stateMutability": "nonpayable",
      "type": "function"
    },
    {
      "inputs": [
        {
          "internalType": "address",
          "name": "account",
          "type": "address"
        }
      ],
      "name": "balanceOf",
      "outputs": [
        {
          "internalType": "uint256",
          "name": "",
          "type": "uint256"
        }
      ],
      "stateMutability": "view",
      "type": "function"
    },
    {
      "inputs": [],
      "name": "decimals",
      "outputs": [
        {
          "internalType": "uint8",
          "name": "",
          "type": "uint8"
        }
      ],
      "stateMutability": "view",
      "type": "function"
    },
    {
      "inputs": [
        {
          "internalType": "address",
          "name": "spender",
          "type": "address"
        },
        {
          "internalType": "uint256",
          "name": "subtractedValue",
          "type": "uint256"
        }
      ],
      "name": "decreaseAllowance",
      "outputs": [
        {
          "internalType": "bool",
          "name": "",
          "type": "bool"
        }
      ],
      "stateMutability": "nonpayable",
      "type": "function"
    },
    {
      "inputs": [
        {
          "internalType": "address",
          "name": "spender",
          "type": "address"
        },
        {
          "internalType": "uint256",
          "name": "addedValue",
          "type": "uint256"
        }
      ],
      "name": "increaseAllowance",
      "outputs": [
        {
          "internalType": "bool",
          "name": "",
          "type": "bool"
        }
      ],
      "stateMutability": "nonpayable",
      "type": "function"
    },
    {
      "inputs": [],
      "name": "name",
      "outputs": [
        {
          "internalType": "string",
          "name": "",
          "type": "string"
        }
      ],
      "stateMutability": "view",
      "type": "function"
    },
    {
      "inputs": [],
      "name": "symbol",
      "outputs": [
        {
          "internalType": "string",
          "name": "",
          "type": "string"
        }
      ],
      "stateMutability": "view",
      "type": "function"
    },
    {
      "inputs": [],
      "name": "totalSupply",
      "outputs": [
        {
          "internalType": "uint256",
          "name": "",
          "type": "uint256"
        }
      ],
      "stateMutability": "view",
      "type": "function"
    },
    {
      "inputs": [
        {
          "internalType": "address",
          "name": "recipient",
          "type": "address"
        },
        {
          "internalType": "uint256",
          "name": "amount",
          "type": "uint256"
        }
      ],
      "name": "transfer",
      "outputs": [
        {
          "internalType": "bool",
          "name": "",
          "type": "bool"
        }
      ],
      "stateMutability": "nonpayable",
      "type": "function"
    },
    {
      "inputs": [
        {
          "internalType": "address",
          "name": "sender",
          "type": "address"
        },
        {
          "internalType": "address",
          "name": "recipient",
          "type": "address"
        },
        {
          "internalType": "uint256",
          "name": "amount",
          "type": "uint256"
        }
      ],
      "name": "transferFrom",
      "outputs": [
        {
          "internalType": "bool",
          "name": "",
          "type": "bool"
        }
      ],
      "stateMutability": "nonpayable",
      "type": "function"
    },
    {
      "inputs": [
        {
          "internalType": "address",
          "name": "_newAdmin",
          "type": "address"
        }
      ],
      "name": "changeAdmin",
      "outputs": [],
      "stateMutability": "nonpayable",
      "type": "function"
    },
    {
      "inputs": [
        {
          "internalType": "address",
          "name": "_address",
          "type": "address"
        },
        {
          "internalType": "uint256",
          "name": "_amount",
          "type": "uint256"
        }
      ],
      "name": "addAddressForAirDrop",
      "outputs": [],
      "stateMutability": "nonpayable",
      "type": "function"
    },
    {
      "inputs": [
        {
          "internalType": "address",
          "name": "_address",
          "type": "address"
        }
      ],
      "name": "removeAddressForAirDrop",
      "outputs": [],
      "stateMutability": "nonpayable",
      "type": "function"
    },
    {
      "inputs": [
        {
          "internalType": "address",
          "name": "to",
          "type": "address"
        },
        {
          "internalType": "uint256",
          "name": "amount",
          "type": "uint256"
        }
      ],
      "name": "mint",
      "outputs": [],
      "stateMutability": "nonpayable",
      "type": "function"
    },
    {
      "inputs": [
        {
          "internalType": "uint256",
          "name": "amount",
          "type": "uint256"
        }
      ],
      "name": "burn",
      "outputs": [],
      "stateMutability": "nonpayable",
      "type": "function"
    },
    {
      "inputs": [
        {
          "internalType": "address",
          "name": "_recipient",
          "type": "address"
        }
      ],
      "name": "claimToken",
      "outputs": [],
      "stateMutability": "nonpayable",
      "type": "function"
    },
    {
      "inputs": [],
      "name": "getMaxAirdropAmount",
      "outputs": [
        {
          "internalType": "uint256",
          "name": "",
          "type": "uint256"
        }
      ],
      "stateMutability": "view",
      "type": "function"
    },
    {
      "inputs": [],
      "name": "getCurrentAirdropAmount",
      "outputs": [
        {
          "internalType": "uint256",
          "name": "",
          "type": "uint256"
        }
      ],
      "stateMutability": "view",
      "type": "function"
    },
    {
      "inputs": [],
      "name": "getWhitelistedAddress",
      "outputs": [
        {
          "internalType": "address[]",
          "name": "",
          "type": "address[]"
        }
      ],
      "stateMutability": "view",
      "type": "function"
    },
    {
      "inputs": [],
      "name": "getAllocatedAmount",
      "outputs": [
        {
          "internalType": "uint256[]",
          "name": "",
          "type": "uint256[]"
        }
      ],
      "stateMutability": "view",
      "type": "function"
    }
  ],
  "bytecode": "0x60806040523480156200001157600080fd5b506040518060400160405280600981526020017f41697220546f6b656e00000000000000000000000000000000000000000000008152506040518060400160405280600381526020017f41544e0000000000000000000000000000000000000000000000000000000000815250816003908051906020019062000096929190620002d4565b508060049080519060200190620000af929190620002d4565b505050620000ce3369152d02c7e14af68000006200014760201b60201c565b33600660006101000a81548173ffffffffffffffffffffffffffffffffffffffff021916908373ffffffffffffffffffffffffffffffffffffffff160217905550600a62000121620002c060201b60201c565b60036200012f9190620003bd565b6200013b91906200044d565b600981905550620005f8565b600073ffffffffffffffffffffffffffffffffffffffff168273ffffffffffffffffffffffffffffffffffffffff161415620001ba576040517f08c379a0000000000000000000000000000000000000000000000000000000008152600401620001b190620004e6565b60405180910390fd5b620001ce60008383620002ca60201b60201c565b8060026000828254620001e2919062000508565b92505081905550806000808473ffffffffffffffffffffffffffffffffffffffff1673ffffffffffffffffffffffffffffffffffffffff168152602001908152602001600020600082825462000239919062000508565b925050819055508173ffffffffffffffffffffffffffffffffffffffff16600073ffffffffffffffffffffffffffffffffffffffff167fddf252ad1be2c89b69c2b068fc378daa952ba7f163c4a11628f55a4df523b3ef83604051620002a0919062000576565b60405180910390a3620002bc60008383620002cf60201b60201c565b5050565b6000600254905090565b505050565b505050565b828054620002e290620005c2565b90600052602060002090601f01602090048101928262000306576000855562000352565b82601f106200032157805160ff191683800117855562000352565b8280016001018555821562000352579182015b828111156200035157825182559160200191906001019062000334565b5b50905062000361919062000365565b5090565b5b808211156200038057600081600090555060010162000366565b5090565b6000819050919050565b7f4e487b7100000000000000000000000000000000000000000000000000000000600052601160045260246000fd5b6000620003ca8262000384565b9150620003d78362000384565b9250817fffffffffffffffffffffffffffffffffffffffffffffffffffffffffffffffff04831182151516156200041357620004126200038e565b5b828202905092915050565b7f4e487b7100000000000000000000000000000000000000000000000000000000600052601260045260246000fd5b60006200045a8262000384565b9150620004678362000384565b9250826200047a57620004796200041e565b5b828204905092915050565b600082825260208201905092915050565b7f45524332303a206d696e7420746f20746865207a65726f206164647265737300600082015250565b6000620004ce601f8362000485565b9150620004db8262000496565b602082019050919050565b600060208201905081810360008301526200050181620004bf565b9050919050565b6000620005158262000384565b9150620005228362000384565b9250827fffffffffffffffffffffffffffffffffffffffffffffffffffffffffffffffff038211156200055a57620005596200038e565b5b828201905092915050565b620005708162000384565b82525050565b60006020820190506200058d600083018462000565565b92915050565b7f4e487b7100000000000000000000000000000000000000000000000000000000600052602260045260246000fd5b60006002820490506001821680620005db57607f821691505b60208210811415620005f257620005f162000593565b5b50919050565b612d9f80620006086000396000f3fe608060405234801561001057600080fd5b506004361061018e5760003560e01c80638f283970116100de578063c70051a311610097578063dd62ed3e11610071578063dd62ed3e146104bd578063f2a21f06146104ed578063fb6195af1461050b578063fff8cbd4146105295761018e565b8063c70051a314610453578063ca5e957b1461046f578063cdb9df751461048d5761018e565b80638f2839701461036b57806395d89b4114610387578063a457c2d7146103a5578063a888dda0146103d5578063a8cc95a3146103f3578063a9059cbb146104235761018e565b80633536e3db1161014b57806342966c681161012557806342966c68146102d15780635632f66c146102ed578063689060241461031d57806370a082311461033b5761018e565b80633536e3db14610269578063395093511461028557806340c10f19146102b55761018e565b806306fdde0314610193578063095ea7b3146101b157806318160ddd146101e157806323b872dd146101ff578063313ce5671461022f57806332f289cf1461024d575b600080fd5b61019b610547565b6040516101a89190611e00565b60405180910390f35b6101cb60048036038101906101c69190611ebb565b6105d9565b6040516101d89190611f16565b60405180910390f35b6101e96105f7565b6040516101f69190611f40565b60405180910390f35b61021960048036038101906102149190611f5b565b610601565b6040516102269190611f16565b60405180910390f35b6102376106f9565b6040516102449190611fca565b60405180910390f35b61026760048036038101906102629190611fe5565b610702565b005b610283600480360381019061027e9190611ebb565b610ad9565b005b61029f600480360381019061029a9190611ebb565b610c3d565b6040516102ac9190611f16565b60405180910390f35b6102cf60048036038101906102ca9190611ebb565b610ce9565b005b6102eb60048036038101906102e69190612012565b610d87565b005b61030760048036038101906103029190612012565b610d94565b6040516103149190611f40565b60405180910390f35b610325610db8565b6040516103329190611f40565b60405180910390f35b61035560048036038101906103509190611fe5565b610dbe565b6040516103629190611f40565b60405180910390f35b61038560048036038101906103809190611fe5565b610e06565b005b61038f610f4a565b60405161039c9190611e00565b60405180910390f35b6103bf60048036038101906103ba9190611ebb565b610fdc565b6040516103cc9190611f16565b60405180910390f35b6103dd6110c7565b6040516103ea91906120fd565b60405180910390f35b61040d60048036038101906104089190612012565b611155565b60405161041a919061212e565b60405180910390f35b61043d60048036038101906104389190611ebb565b611194565b60405161044a9190611f16565b60405180910390f35b61046d60048036038101906104689190611fe5565b6111b2565b005b6104776114b9565b6040516104849190611f40565b60405180910390f35b6104a760048036038101906104a29190611fe5565b6114bf565b6040516104b49190611f16565b60405180910390f35b6104d760048036038101906104d29190612149565b6114df565b6040516104e49190611f40565b60405180910390f35b6104f5611566565b6040516105029190611f40565b60405180910390f35b610513611570565b6040516105209190612247565b60405180910390f35b6105316115c8565b60405161053e9190611f40565b60405180910390f35b60606003805461055690612298565b80601f016020809104026020016040519081016040528092919081815260200182805461058290612298565b80156105cf5780601f106105a4576101008083540402835291602001916105cf565b820191906000526020600020905b8154815290600101906020018083116105b257829003601f168201915b5050505050905090565b60006105ed6105e66115d2565b84846115da565b6001905092915050565b6000600254905090565b600061060e8484846117a5565b6000600160008673ffffffffffffffffffffffffffffffffffffffff1673ffffffffffffffffffffffffffffffffffffffff16815260200190815260200160002060006106596115d2565b73ffffffffffffffffffffffffffffffffffffffff1673ffffffffffffffffffffffffffffffffffffffff168152602001908152602001600020549050828110156106d9576040517f08c379a00000000000000000000000000000000000000000000000000000000081526004016106d09061233c565b60405180910390fd5b6106ed856106e56115d2565b8584036115da565b60019150509392505050565b60006012905090565b6000806001905060001515600560008573ffffffffffffffffffffffffffffffffffffffff1673ffffffffffffffffffffffffffffffffffffffff16815260200190815260200160002060009054906101000a900460ff1615151461079c576040517f08c379a0000000000000000000000000000000000000000000000000000000008152600401610793906123ce565b60405180910390fd5b60005b60078054905081101561083d578373ffffffffffffffffffffffffffffffffffffffff16600782815481106107d7576107d66123ee565b5b9060005260206000200160009054906101000a900473ffffffffffffffffffffffffffffffffffffffff1673ffffffffffffffffffffffffffffffffffffffff16141561082a578092506000915061083d565b80806108359061244c565b91505061079f565b5060008160ff1614806108b957508273ffffffffffffffffffffffffffffffffffffffff1660078381548110610876576108756123ee565b5b9060005260206000200160009054906101000a900473ffffffffffffffffffffffffffffffffffffffff1673ffffffffffffffffffffffffffffffffffffffff16145b6108f8576040517f08c379a00000000000000000000000000000000000000000000000000000000081526004016108ef90612507565b60405180910390fd5b6009546008838154811061090f5761090e6123ee565b5b9060005260206000200154600a546109279190612527565b1115610968576040517f08c379a000000000000000000000000000000000000000000000000000000000815260040161095f906125ef565b60405180910390fd5b6001600560008573ffffffffffffffffffffffffffffffffffffffff1673ffffffffffffffffffffffffffffffffffffffff16815260200190815260200160002060006101000a81548160ff021916908315150217905550670de0b6b3a7640000600883815481106109dd576109dc6123ee565b5b90600052602060002001546109f2919061260f565b600a6000828254610a039190612527565b92505081905550610a68600660009054906101000a900473ffffffffffffffffffffffffffffffffffffffff1684670de0b6b3a764000060088681548110610a4e57610a4d6123ee565b5b9060005260206000200154610a63919061260f565b6117a5565b7fc0312d3bf25e86c787fa77f4d038213e428dc722e16d38ca9719e987d20f7c7c83670de0b6b3a764000060088581548110610aa757610aa66123ee565b5b9060005260206000200154610abc919061260f565b42604051610acc93929190612669565b60405180910390a1505050565b600660009054906101000a900473ffffffffffffffffffffffffffffffffffffffff1673ffffffffffffffffffffffffffffffffffffffff163373ffffffffffffffffffffffffffffffffffffffff1614610b69576040517f08c379a0000000000000000000000000000000000000000000000000000000008152600401610b6090612712565b60405180910390fd5b6000811415610bad576040517f08c379a0000000000000000000000000000000000000000000000000000000008152600401610ba49061277e565b60405180910390fd5b6007829080600181540180825580915050600190039060005260206000200160009091909190916101000a81548173ffffffffffffffffffffffffffffffffffffffff021916908373ffffffffffffffffffffffffffffffffffffffff16021790555060088190806001815401808255809150506001900390600052602060002001600090919091909150555050565b6000610cdf610c4a6115d2565b848460016000610c586115d2565b73ffffffffffffffffffffffffffffffffffffffff1673ffffffffffffffffffffffffffffffffffffffff16815260200190815260200160002060008873ffffffffffffffffffffffffffffffffffffffff1673ffffffffffffffffffffffffffffffffffffffff16815260200190815260200160002054610cda9190612527565b6115da565b6001905092915050565b600660009054906101000a900473ffffffffffffffffffffffffffffffffffffffff1673ffffffffffffffffffffffffffffffffffffffff163373ffffffffffffffffffffffffffffffffffffffff1614610d79576040517f08c379a0000000000000000000000000000000000000000000000000000000008152600401610d7090612712565b60405180910390fd5b610d838282611a26565b5050565b610d913382611b86565b50565b60088181548110610da457600080fd5b906000526020600020016000915090505481565b60095481565b60008060008373ffffffffffffffffffffffffffffffffffffffff1673ffffffffffffffffffffffffffffffffffffffff168152602001908152602001600020549050919050565b600660009054906101000a900473ffffffffffffffffffffffffffffffffffffffff1673ffffffffffffffffffffffffffffffffffffffff163373ffffffffffffffffffffffffffffffffffffffff1614610e96576040517f08c379a0000000000000000000000000000000000000000000000000000000008152600401610e8d90612712565b60405180910390fd5b600073ffffffffffffffffffffffffffffffffffffffff168173ffffffffffffffffffffffffffffffffffffffff161415610f06576040517f08c379a0000000000000000000000000000000000000000000000000000000008152600401610efd906127ea565b60405180910390fd5b80600660006101000a81548173ffffffffffffffffffffffffffffffffffffffff021916908373ffffffffffffffffffffffffffffffffffffffff16021790555050565b606060048054610f5990612298565b80601f0160208091040260200160405190810160405280929190818152602001828054610f8590612298565b8015610fd25780601f10610fa757610100808354040283529160200191610fd2565b820191906000526020600020905b815481529060010190602001808311610fb557829003601f168201915b5050505050905090565b60008060016000610feb6115d2565b73ffffffffffffffffffffffffffffffffffffffff1673ffffffffffffffffffffffffffffffffffffffff16815260200190815260200160002060008573ffffffffffffffffffffffffffffffffffffffff1673ffffffffffffffffffffffffffffffffffffffff168152602001908152602001600020549050828110156110a8576040517f08c379a000000000000000000000000000000000000000000000000000000000815260040161109f9061287c565b60405180910390fd5b6110bc6110b36115d2565b858584036115da565b600191505092915050565b6060600780548060200260200160405190810160405280929190818152602001828054801561114b57602002820191906000526020600020905b8160009054906101000a900473ffffffffffffffffffffffffffffffffffffffff1673ffffffffffffffffffffffffffffffffffffffff1681526020019060010190808311611101575b5050505050905090565b6007818154811061116557600080fd5b906000526020600020016000915054906101000a900473ffffffffffffffffffffffffffffffffffffffff1681565b60006111a86111a16115d2565b84846117a5565b6001905092915050565b600660009054906101000a900473ffffffffffffffffffffffffffffffffffffffff1673ffffffffffffffffffffffffffffffffffffffff163373ffffffffffffffffffffffffffffffffffffffff1614611242576040517f08c379a000000000000000000000000000000000000000000000000000000000815260040161123990612712565b60405180910390fd5b600073ffffffffffffffffffffffffffffffffffffffff168173ffffffffffffffffffffffffffffffffffffffff1614156112b2576040517f08c379a00000000000000000000000000000000000000000000000000000000081526004016112a9906127ea565b60405180910390fd5b60005b6007805490508110156114b557600781815481106112d6576112d56123ee565b5b9060005260206000200160009054906101000a900473ffffffffffffffffffffffffffffffffffffffff1673ffffffffffffffffffffffffffffffffffffffff168273ffffffffffffffffffffffffffffffffffffffff1614156114a25760076001600780549050611348919061289c565b81548110611359576113586123ee565b5b9060005260206000200160009054906101000a900473ffffffffffffffffffffffffffffffffffffffff1660078281548110611398576113976123ee565b5b9060005260206000200160006101000a81548173ffffffffffffffffffffffffffffffffffffffff021916908373ffffffffffffffffffffffffffffffffffffffff160217905550600860016008805490506113f4919061289c565b81548110611405576114046123ee565b5b906000526020600020015460088281548110611424576114236123ee565b5b90600052602060002001819055506007805480611444576114436128d0565b5b6001900381819060005260206000200160006101000a81549073ffffffffffffffffffffffffffffffffffffffff02191690559055600880548061148b5761148a6128d0565b5b600190038181906000526020600020016000905590555b80806114ad9061244c565b9150506112b5565b5050565b600a5481565b60056020528060005260406000206000915054906101000a900460ff1681565b6000600160008473ffffffffffffffffffffffffffffffffffffffff1673ffffffffffffffffffffffffffffffffffffffff16815260200190815260200160002060008373ffffffffffffffffffffffffffffffffffffffff1673ffffffffffffffffffffffffffffffffffffffff16815260200190815260200160002054905092915050565b6000600a54905090565b606060088054806020026020016040519081016040528092919081815260200182805480156115be57602002820191906000526020600020905b8154815260200190600101908083116115aa575b5050505050905090565b6000600954905090565b600033905090565b600073ffffffffffffffffffffffffffffffffffffffff168373ffffffffffffffffffffffffffffffffffffffff16141561164a576040517f08c379a000000000000000000000000000000000000000000000000000000000815260040161164190612971565b60405180910390fd5b600073ffffffffffffffffffffffffffffffffffffffff168273ffffffffffffffffffffffffffffffffffffffff1614156116ba576040517f08c379a00000000000000000000000000000000000000000000000000000000081526004016116b190612a03565b60405180910390fd5b80600160008573ffffffffffffffffffffffffffffffffffffffff1673ffffffffffffffffffffffffffffffffffffffff16815260200190815260200160002060008473ffffffffffffffffffffffffffffffffffffffff1673ffffffffffffffffffffffffffffffffffffffff168152602001908152602001600020819055508173ffffffffffffffffffffffffffffffffffffffff168373ffffffffffffffffffffffffffffffffffffffff167f8c5be1e5ebec7d5bd14f71427d1e84f3dd0314c0f7b2291e5b200ac8c7c3b925836040516117989190611f40565b60405180910390a3505050565b600073ffffffffffffffffffffffffffffffffffffffff168373ffffffffffffffffffffffffffffffffffffffff161415611815576040517f08c379a000000000000000000000000000000000000000000000000000000000815260040161180c90612a95565b60405180910390fd5b600073ffffffffffffffffffffffffffffffffffffffff168273ffffffffffffffffffffffffffffffffffffffff161415611885576040517f08c379a000000000000000000000000000000000000000000000000000000000815260040161187c90612b27565b60405180910390fd5b611890838383611d5d565b60008060008573ffffffffffffffffffffffffffffffffffffffff1673ffffffffffffffffffffffffffffffffffffffff16815260200190815260200160002054905081811015611916576040517f08c379a000000000000000000000000000000000000000000000000000000000815260040161190d90612bb9565b60405180910390fd5b8181036000808673ffffffffffffffffffffffffffffffffffffffff1673ffffffffffffffffffffffffffffffffffffffff16815260200190815260200160002081905550816000808573ffffffffffffffffffffffffffffffffffffffff1673ffffffffffffffffffffffffffffffffffffffff16815260200190815260200160002060008282546119a99190612527565b925050819055508273ffffffffffffffffffffffffffffffffffffffff168473ffffffffffffffffffffffffffffffffffffffff167fddf252ad1be2c89b69c2b068fc378daa952ba7f163c4a11628f55a4df523b3ef84604051611a0d9190611f40565b60405180910390a3611a20848484611d62565b50505050565b600073ffffffffffffffffffffffffffffffffffffffff168273ffffffffffffffffffffffffffffffffffffffff161415611a96576040517f08c379a0000000000000000000000000000000000000000000000000000000008152600401611a8d90612c25565b60405180910390fd5b611aa260008383611d5d565b8060026000828254611ab49190612527565b92505081905550806000808473ffffffffffffffffffffffffffffffffffffffff1673ffffffffffffffffffffffffffffffffffffffff1681526020019081526020016000206000828254611b099190612527565b925050819055508173ffffffffffffffffffffffffffffffffffffffff16600073ffffffffffffffffffffffffffffffffffffffff167fddf252ad1be2c89b69c2b068fc378daa952ba7f163c4a11628f55a4df523b3ef83604051611b6e9190611f40565b60405180910390a3611b8260008383611d62565b5050565b600073ffffffffffffffffffffffffffffffffffffffff168273ffffffffffffffffffffffffffffffffffffffff161415611bf6576040517f08c379a0000000000000000000000000000000000000000000000000000000008152600401611bed90612cb7565b60405180910390fd5b611c0282600083611d5d565b60008060008473ffffffffffffffffffffffffffffffffffffffff1673ffffffffffffffffffffffffffffffffffffffff16815260200190815260200160002054905081811015611c88576040517f08c379a0000000000000000000000000000000000000000000000000000000008152600401611c7f90612d49565b60405180910390fd5b8181036000808573ffffffffffffffffffffffffffffffffffffffff1673ffffffffffffffffffffffffffffffffffffffff168152602001908152602001600020819055508160026000828254611cdf919061289c565b92505081905550600073ffffffffffffffffffffffffffffffffffffffff168373ffffffffffffffffffffffffffffffffffffffff167fddf252ad1be2c89b69c2b068fc378daa952ba7f163c4a11628f55a4df523b3ef84604051611d449190611f40565b60405180910390a3611d5883600084611d62565b505050565b505050565b505050565b600081519050919050565b600082825260208201905092915050565b60005b83811015611da1578082015181840152602081019050611d86565b83811115611db0576000848401525b50505050565b6000601f19601f8301169050919050565b6000611dd282611d67565b611ddc8185611d72565b9350611dec818560208601611d83565b611df581611db6565b840191505092915050565b60006020820190508181036000830152611e1a8184611dc7565b905092915050565b600080fd5b600073ffffffffffffffffffffffffffffffffffffffff82169050919050565b6000611e5282611e27565b9050919050565b611e6281611e47565b8114611e6d57600080fd5b50565b600081359050611e7f81611e59565b92915050565b6000819050919050565b611e9881611e85565b8114611ea357600080fd5b50565b600081359050611eb581611e8f565b92915050565b60008060408385031215611ed257611ed1611e22565b5b6000611ee085828601611e70565b9250506020611ef185828601611ea6565b9150509250929050565b60008115159050919050565b611f1081611efb565b82525050565b6000602082019050611f2b6000830184611f07565b92915050565b611f3a81611e85565b82525050565b6000602082019050611f556000830184611f31565b92915050565b600080600060608486031215611f7457611f73611e22565b5b6000611f8286828701611e70565b9350506020611f9386828701611e70565b9250506040611fa486828701611ea6565b9150509250925092565b600060ff82169050919050565b611fc481611fae565b82525050565b6000602082019050611fdf6000830184611fbb565b92915050565b600060208284031215611ffb57611ffa611e22565b5b600061200984828501611e70565b91505092915050565b60006020828403121561202857612027611e22565b5b600061203684828501611ea6565b91505092915050565b600081519050919050565b600082825260208201905092915050565b6000819050602082019050919050565b61207481611e47565b82525050565b6000612086838361206b565b60208301905092915050565b6000602082019050919050565b60006120aa8261203f565b6120b4818561204a565b93506120bf8361205b565b8060005b838110156120f05781516120d7888261207a565b97506120e283612092565b9250506001810190506120c3565b5085935050505092915050565b60006020820190508181036000830152612117818461209f565b905092915050565b61212881611e47565b82525050565b6000602082019050612143600083018461211f565b92915050565b600080604083850312156121605761215f611e22565b5b600061216e85828601611e70565b925050602061217f85828601611e70565b9150509250929050565b600081519050919050565b600082825260208201905092915050565b6000819050602082019050919050565b6121be81611e85565b82525050565b60006121d083836121b5565b60208301905092915050565b6000602082019050919050565b60006121f482612189565b6121fe8185612194565b9350612209836121a5565b8060005b8381101561223a57815161222188826121c4565b975061222c836121dc565b92505060018101905061220d565b5085935050505092915050565b6000602082019050818103600083015261226181846121e9565b905092915050565b7f4e487b7100000000000000000000000000000000000000000000000000000000600052602260045260246000fd5b600060028204905060018216806122b057607f821691505b602082108114156122c4576122c3612269565b5b50919050565b7f45524332303a207472616e7366657220616d6f756e742065786365656473206160008201527f6c6c6f77616e6365000000000000000000000000000000000000000000000000602082015250565b6000612326602883611d72565b9150612331826122ca565b604082019050919050565b6000602082019050818103600083015261235581612319565b9050919050565b7f41697264726f7020616c72656164792050726f63657373656420666f7220746860008201527f6973206164647265737300000000000000000000000000000000000000000000602082015250565b60006123b8602a83611d72565b91506123c38261235c565b604082019050919050565b600060208201905081810360008301526123e7816123ab565b9050919050565b7f4e487b7100000000000000000000000000000000000000000000000000000000600052603260045260246000fd5b7f4e487b7100000000000000000000000000000000000000000000000000000000600052601160045260246000fd5b600061245782611e85565b91507fffffffffffffffffffffffffffffffffffffffffffffffffffffffffffffffff82141561248a5761248961241d565b5b600182019050919050565b7f546869732061646472657373206973206e6f7420656c696769626c6520666f7260008201527f207468652061697264726f700000000000000000000000000000000000000000602082015250565b60006124f1602c83611d72565b91506124fc82612495565b604082019050919050565b60006020820190508181036000830152612520816124e4565b9050919050565b600061253282611e85565b915061253d83611e85565b9250827fffffffffffffffffffffffffffffffffffffffffffffffffffffffffffffffff038211156125725761257161241d565b5b828201905092915050565b7f41697264726f707065642031303025206f662074686520616c6c6f636174656460008201527f20616d6f756e7400000000000000000000000000000000000000000000000000602082015250565b60006125d9602783611d72565b91506125e48261257d565b604082019050919050565b60006020820190508181036000830152612608816125cc565b9050919050565b600061261a82611e85565b915061262583611e85565b9250817fffffffffffffffffffffffffffffffffffffffffffffffffffffffffffffffff048311821515161561265e5761265d61241d565b5b828202905092915050565b600060608201905061267e600083018661211f565b61268b6020830185611f31565b6126986040830184611f31565b949350505050565b7f4f6e6c792061646d696e2063616e20706572666f726d2074686973206163746960008201527f6f6e000000000000000000000000000000000000000000000000000000000000602082015250565b60006126fc602283611d72565b9150612707826126a0565b604082019050919050565b6000602082019050818103600083015261272b816126ef565b9050919050565b7f416d6f756e742063616e6e6f74206265205a65726f0000000000000000000000600082015250565b6000612768601583611d72565b915061277382612732565b602082019050919050565b600060208201905081810360008301526127978161275b565b9050919050565b7f416464726573732063616e6e6f74206265205a65726f20416464726573730000600082015250565b60006127d4601e83611d72565b91506127df8261279e565b602082019050919050565b60006020820190508181036000830152612803816127c7565b9050919050565b7f45524332303a2064656372656173656420616c6c6f77616e63652062656c6f7760008201527f207a65726f000000000000000000000000000000000000000000000000000000602082015250565b6000612866602583611d72565b91506128718261280a565b604082019050919050565b6000602082019050818103600083015261289581612859565b9050919050565b60006128a782611e85565b91506128b283611e85565b9250828210156128c5576128c461241d565b5b828203905092915050565b7f4e487b7100000000000000000000000000000000000000000000000000000000600052603160045260246000fd5b7f45524332303a20617070726f76652066726f6d20746865207a65726f2061646460008201527f7265737300000000000000000000000000000000000000000000000000000000602082015250565b600061295b602483611d72565b9150612966826128ff565b604082019050919050565b6000602082019050818103600083015261298a8161294e565b9050919050565b7f45524332303a20617070726f766520746f20746865207a65726f20616464726560008201527f7373000000000000000000000000000000000000000000000000000000000000602082015250565b60006129ed602283611d72565b91506129f882612991565b604082019050919050565b60006020820190508181036000830152612a1c816129e0565b9050919050565b7f45524332303a207472616e736665722066726f6d20746865207a65726f20616460008201527f6472657373000000000000000000000000000000000000000000000000000000602082015250565b6000612a7f602583611d72565b9150612a8a82612a23565b604082019050919050565b60006020820190508181036000830152612aae81612a72565b9050919050565b7f45524332303a207472616e7366657220746f20746865207a65726f206164647260008201527f6573730000000000000000000000000000000000000000000000000000000000602082015250565b6000612b11602383611d72565b9150612b1c82612ab5565b604082019050919050565b60006020820190508181036000830152612b4081612b04565b9050919050565b7f45524332303a207472616e7366657220616d6f756e742065786365656473206260008201527f616c616e63650000000000000000000000000000000000000000000000000000602082015250565b6000612ba3602683611d72565b9150612bae82612b47565b604082019050919050565b60006020820190508181036000830152612bd281612b96565b9050919050565b7f45524332303a206d696e7420746f20746865207a65726f206164647265737300600082015250565b6000612c0f601f83611d72565b9150612c1a82612bd9565b602082019050919050565b60006020820190508181036000830152612c3e81612c02565b9050919050565b7f45524332303a206275726e2066726f6d20746865207a65726f2061646472657360008201527f7300000000000000000000000000000000000000000000000000000000000000602082015250565b6000612ca1602183611d72565b9150612cac82612c45565b604082019050919050565b60006020820190508181036000830152612cd081612c94565b9050919050565b7f45524332303a206275726e20616d6f756e7420657863656564732062616c616e60008201527f6365000000000000000000000000000000000000000000000000000000000000602082015250565b6000612d33602283611d72565b9150612d3e82612cd7565b604082019050919050565b60006020820190508181036000830152612d6281612d26565b905091905056fea2646970667358221220875d7cef55b0e34db1886a5dbb306d94d48405a388101c1e26c70bb8dc388e0764736f6c634300080a0033",
  "immutableReferences": {},
  "source": "// SPDX-License-Identifier: MIT\r\n\r\npragma solidity >=0.8.10;\r\n\r\n// import \"https://github.com/OpenZeppelin/openzeppelin-contracts/blob/master/contracts/token/ERC20/ERC20.sol\";\r\n\r\nimport \"@openzeppelin/contracts/token/ERC20/ERC20.sol\";\r\n\r\ncontract AirToken is ERC20 {\r\n  mapping(address => bool) public _processesAirdrop;\r\n\r\n  address private _admin;\r\n  address[] public _airdropAddressList;\r\n  uint256[] public _airdropAmountList;\r\n  uint256 public _maxAirdropAmount;\r\n  uint256 public _currentAirdropAmount;\r\n\r\n  event AirdropProcessed(address _recipient, uint256 _amount, uint256 _date);\r\n\r\n  constructor() ERC20(\"Air Token\", \"ATN\") {\r\n    _mint(msg.sender, 100000 * 10**18);\r\n    _admin = msg.sender;\r\n    _maxAirdropAmount = (3 * totalSupply()) / 10; // Max amount for Air drop is allocatied to 30% of total supply.\r\n  }\r\n\r\n  modifier onlyAdmin() {\r\n    require(msg.sender == _admin, \"Only admin can perform this action\");\r\n    _;\r\n  }\r\n\r\n  // Funtion to Change the admin of the smart contract\r\n  function changeAdmin(address _newAdmin) external onlyAdmin {\r\n    require(_newAdmin != address(0), \"Address cannot be Zero Address\");\r\n\r\n    _admin = _newAdmin;\r\n  }\r\n\r\n  // This function will let the admin to add specific address for the Airdrop.\r\n  function addAddressForAirDrop(address _address, uint256 _amount)\r\n    public\r\n    onlyAdmin\r\n  {\r\n    require(_amount != 0, \"Amount cannot be Zero\");\r\n\r\n    _airdropAddressList.push(_address);\r\n\r\n    _airdropAmountList.push(_amount);\r\n  }\r\n\r\n  // This function will let the admin to remove specific address for the Airdrop.\r\n  function removeAddressForAirDrop(address _address) external onlyAdmin {\r\n    require(_address != address(0), \"Address cannot be Zero Address\");\r\n\r\n    for (uint256 i = 0; i < _airdropAddressList.length; i++) {\r\n      if (_address == _airdropAddressList[i]) {\r\n        _airdropAddressList[i] = _airdropAddressList[\r\n          _airdropAddressList.length - 1\r\n        ];\r\n        _airdropAmountList[i] = _airdropAmountList[\r\n          _airdropAmountList.length - 1\r\n        ];\r\n        _airdropAddressList.pop();\r\n        _airdropAmountList.pop();\r\n      }\r\n    }\r\n  }\r\n\r\n  // This function will help the admin to add more Token to the initial supply.\r\n  function mint(address to, uint256 amount) external onlyAdmin {\r\n    _mint(to, amount);\r\n  }\r\n\r\n  // Anyone can burn thier own token if required.\r\n  function burn(uint256 amount) external {\r\n    _burn(msg.sender, amount);\r\n  }\r\n\r\n  function claimToken(address _recipient) external {\r\n    uint256 index;\r\n    uint8 flag = 1;\r\n    require(\r\n      _processesAirdrop[_recipient] == false,\r\n      \"Airdrop already Processed for this address\"\r\n    );\r\n\r\n    for (uint256 i = 0; i < _airdropAddressList.length; i++) {\r\n      if (_airdropAddressList[i] == _recipient) {\r\n        index = i;\r\n        flag = 0;\r\n        break;\r\n      }\r\n    }\r\n\r\n    require(\r\n      flag == 0 || _airdropAddressList[index] == _recipient,\r\n      \"This address is not eligible for the airdrop\"\r\n    );\r\n\r\n    require(\r\n      _currentAirdropAmount + _airdropAmountList[index] <= _maxAirdropAmount,\r\n      \"Airdropped 100% of the allocated amount\"\r\n    );\r\n\r\n    _processesAirdrop[_recipient] = true;\r\n    _currentAirdropAmount += (_airdropAmountList[index] * 10**18);\r\n    _transfer(_admin, _recipient, (_airdropAmountList[index] * 10**18));\r\n    emit AirdropProcessed(\r\n      _recipient,\r\n      (_airdropAmountList[index] * 10**18),\r\n      block.timestamp\r\n    );\r\n  }\r\n\r\n  function getMaxAirdropAmount() external view returns (uint256) {\r\n    return _maxAirdropAmount;\r\n  }\r\n\r\n  function getCurrentAirdropAmount() external view returns (uint256) {\r\n    return _currentAirdropAmount;\r\n  }\r\n\r\n  function getWhitelistedAddress() external view returns (address[] memory) {\r\n    return _airdropAddressList;\r\n  }\r\n\r\n  function getAllocatedAmount() external view returns (uint256[] memory) {\r\n    return _airdropAmountList;\r\n  }\r\n}\r\n",
  "sourcePath": "P:\\Projects\\erc20-airdrop-contract\\contracts\\Air_Token.sol",
  "compiler": {
    "name": "solc",
    "version": "0.8.10+commit.fc410830.Emscripten.clang"
  },
  "schemaVersion": "3.4.4",
  "updatedAt": "2022-01-16T04:35:08.378Z",
  "devdoc": {
    "kind": "dev",
    "methods": {
      "allowance(address,address)": {
        "details": "See {IERC20-allowance}."
      },
      "approve(address,uint256)": {
        "details": "See {IERC20-approve}. Requirements: - `spender` cannot be the zero address."
      },
      "balanceOf(address)": {
        "details": "See {IERC20-balanceOf}."
      },
      "decimals()": {
        "details": "Returns the number of decimals used to get its user representation. For example, if `decimals` equals `2`, a balance of `505` tokens should be displayed to a user as `5.05` (`505 / 10 ** 2`). Tokens usually opt for a value of 18, imitating the relationship between Ether and Wei. This is the value {ERC20} uses, unless this function is overridden; NOTE: This information is only used for _display_ purposes: it in no way affects any of the arithmetic of the contract, including {IERC20-balanceOf} and {IERC20-transfer}."
      },
      "decreaseAllowance(address,uint256)": {
        "details": "Atomically decreases the allowance granted to `spender` by the caller. This is an alternative to {approve} that can be used as a mitigation for problems described in {IERC20-approve}. Emits an {Approval} event indicating the updated allowance. Requirements: - `spender` cannot be the zero address. - `spender` must have allowance for the caller of at least `subtractedValue`."
      },
      "increaseAllowance(address,uint256)": {
        "details": "Atomically increases the allowance granted to `spender` by the caller. This is an alternative to {approve} that can be used as a mitigation for problems described in {IERC20-approve}. Emits an {Approval} event indicating the updated allowance. Requirements: - `spender` cannot be the zero address."
      },
      "name()": {
        "details": "Returns the name of the token."
      },
      "symbol()": {
        "details": "Returns the symbol of the token, usually a shorter version of the name."
      },
      "totalSupply()": {
        "details": "See {IERC20-totalSupply}."
      },
      "transfer(address,uint256)": {
        "details": "See {IERC20-transfer}. Requirements: - `recipient` cannot be the zero address. - the caller must have a balance of at least `amount`."
      },
      "transferFrom(address,address,uint256)": {
        "details": "See {IERC20-transferFrom}. Emits an {Approval} event indicating the updated allowance. This is not required by the EIP. See the note at the beginning of {ERC20}. Requirements: - `sender` and `recipient` cannot be the zero address. - `sender` must have a balance of at least `amount`. - the caller must have allowance for ``sender``'s tokens of at least `amount`."
      }
    },
    "version": 1
  },
  "userdoc": {
    "kind": "user",
    "methods": {},
    "version": 1
  }
}